:100000000C9462000C948A000C948A000C948A0070
:100010000C948A000C948A000C948A000C948A0038
:100020000C948A000C948A000C948A000C948A0028
:100030000C948A000C948A000C948A000C948A0018
:100040000C941F030C948A000C94ED020C94C702CC
:100050000C948A000C948A000C948A000C948A00F8
:100060000C948A000C948A00000000080002010031
:100070000003040700000000000000000000000072
:10008000250028002B0000000000240027002A0083
:1000900000000000230026002900040404040404D6
:1000A0000404020202020202030303030303010227
:1000B00004081020408001020408102001020408F6
:1000C00010203F0511241FBECFEFD8E0DEBFCDBF0B
:1000D00011E0A0E0B1E0E6EDFDE002C005900D9278
:1000E000AC34B107D9F721E0ACE4B1E001C01D9216
:1000F000A23FB207E1F710E0C2E6D0E004C02197CA
:10010000FE010E94E306C136D107C9F70E94AE0383
:100110000C94E9060C940000AF92BF92CF92DF924C
:10012000EF92FF920F931F93CF93DF936C017B01AC
:100130008B01040F151FEB015E01AE18BF08C0173D
:10014000D10759F06991D601ED91FC910190F081B0
:10015000E02DC6010995892B79F7C501DF91CF9173
:100160001F910F91FF90EF90DF90CF90BF90AF90D5
:100170000895FC01538D448D252F30E0842F90E0AD
:10018000821B930B541710F0CF9608950197089592
:10019000FC01918D828D981761F0A28DAE0FBF2F5B
:1001A000B11D5D968C91928D9F5F9F73928F90E0B1
:1001B00008958FEF9FEF0895FC01918D828D981720
:1001C00031F0828DE80FF11D858D90E008958FEF5D
:1001D0009FEF0895FC01918D228D892F90E0805C26
:1001E0009F4F821B91098F739927089585E591E0B0
:1001F0000E94EA0021E0892B09F420E0822F089573
:1002000080E090E0892B29F00E94F60081110C9487
:1002100000000895FC01A48DA80FB92FB11DA35AA9
:10022000BF4F2C91848D90E001968F739927848F16
:10023000A689B7892C93A089B1898C918370806439
:100240008C93938D848D981306C00288F389E02DDA
:1002500080818F7D80830895EF92FF920F931F938B
:10026000CF93DF93EC0181E0888F9B8D8C8D981369
:100270001AC0E889F989808185FF15C09FB7F89475
:10028000EE89FF896083E889F989808183708064C1
:1002900080839FBF81E090E0DF91CF911F910F910C
:1002A000FF90EF900895F62E0B8D10E00F5F1F4F1B
:1002B0000F731127E02E8C8D8E110CC00FB607FC2A
:1002C000FACFE889F989808185FFF5CFCE010E94B8
:1002D0000A01F1CFEB8DEC0FFD2FF11DE35AFF4F1B
:1002E000F0829FB7F8940B8FEA89FB898081806246
:1002F000CFCFCF93DF93EC01888D8823B9F0AA8903
:10030000BB89E889F9898C9185FD03C0808186FDD0
:100310000DC00FB607FCF7CF8C9185FFF2CF80811F
:1003200085FFEDCFCE010E940A01E9CFDF91CF9189
:10033000089590E0FC01E859FF4F2491FC01E2553B
:10034000FF4F3491FC01E656FF4FE491EE23C9F0D4
:10035000222339F0233001F1A8F4213019F12230A1
:1003600029F1F0E0EE0FFF1FE458FF4FA591B49183
:100370008FB7F894EC91611126C030953E233C93E1
:100380008FBF08952730A9F02830C9F0243049F7ED
:10039000809180008F7D03C0809180008F77809353
:1003A0008000DFCF84B58F7784BDDBCF84B58F7DB0
:1003B000FBCF8091B0008F778093B000D2CF809137
:1003C000B0008F7DF9CF3E2BDACF3FB7F894809104
:1003D000510190915201A0915301B091540126B561
:1003E000A89B05C02F3F19F00196A11DB11D3FBF6D
:1003F000BA2FA92F982F8827BC01CD01620F711D3C
:10040000811D911D42E0660F771F881F991F4A9535
:10041000D1F708958F929F92AF92BF92CF92DF92C1
:10042000EF92FF920E94E5014B015C0184E6C82E29
:10043000D12CE12CF12C0E94E501681979098A0977
:100440009B09683E734081059105A8F321E0C21A1B
:10045000D108E108F10888EE880E83E0981EA11CFF
:10046000B11CC114D104E104F10429F7FF90EF900D
:10047000DF90CF90BF90AF909F908F900895FC0138
:1004800001900020E9F73197AF01481B590BBC01DF
:1004900085E591E00C948C008F929F92AF92BF9271
:1004A000CF92DF92EF92FF920F931F93CF93DF9340
:1004B000CDB7DEB7A1970FB6F894DEBF0FBECDBFA4
:1004C0006B017C01F7FE41C06DE285E591E00E9481
:1004D0002C018C0122273327A9012C193D094E0933
:1004E0005F0919A2CE0181967C019AE0892E912C98
:1004F000A12CB12CCA01B901A50194010E94A20648
:10050000605DF70162937F012115310541055105B9
:1005100089F790E080E0309719F0CF010E943F0208
:10052000800F911FA1960FB6F894DEBF0FBECDBF0E
:10053000DF91CF911F910F91FF90EF90DF90CF90BF
:10054000BF90AF909F908F900895AC019B0119A22E
:100550008E010F5D1F4F8AE0C82ED12CE12CF12CAB
:10056000CA01B901A70196010E94A206605DF801C7
:1005700062938F01211531054105510589F790E0FE
:1005800080E0309779F2CF010E943F02CBCF1F92DB
:100590000F920FB60F9211242F933F934F935F93B7
:1005A0006F937F938F939F93AF93BF93EF93FF933B
:1005B00085E591E00E940A01FF91EF91BF91AF9113
:1005C0009F918F917F916F915F914F913F912F916B
:1005D0000F900FBE0F901F9018951F920F920FB69D
:1005E0000F9211242F938F939F93EF93FF93E0919A
:1005F0006501F09166018081E0916B01F0916C01E1
:1006000082FD1BC0908180916E018F5F8F7320915E
:100610006F01821741F0E0916E01F0E0EB5AFE4F5E
:10062000958F80936E01FF91EF919F918F912F9104
:100630000F900FBE0F901F9018958081F4CF1F92DE
:100640000F920FB60F9211242F933F938F939F9386
:10065000AF93BF9380914D0190914E01A0914F01B6
:10066000B091500130914C0123E0230F2D3758F504
:100670000196A11DB11D20934C0180934D019093D3
:100680004E01A0934F01B093500180915101909180
:100690005201A0915301B09154010196A11DB11DC9
:1006A0008093510190935201A0935301B093540150
:1006B000BF91AF919F918F913F912F910F900FBE5E
:1006C0000F901F90189526E8230F0296A11DB11DCB
:1006D000D2CFCF92DF92EF92FF920F931F93E82F2A
:1006E000F92F05C0015011092109310961F19081EB
:1006F00096239417B9F305C0015011092109310956
:1007000011F1908196239413F7CFC12CD12CE12CB9
:10071000F12C0AC08FEFC81AD80AE80AF80A0C159B
:100720001D052E053F0579F080818623841791F3FE
:100730006C2D7D2D8E2D9F2D1F910F91FF90EF9091
:10074000DF90CF90089560E070E080E090E01F912E
:100750000F91FF90EF90DF90CF900895789484B53B
:10076000826084BD84B5816084BD85B5826085BDAD
:1007700085B5816085BD80916E00816080936E003B
:10078000109281008091810082608093810080912D
:1007900081008160809381008091800081608093DE
:1007A00080008091B10084608093B1008091B0009E
:1007B00081608093B00080917A00846080937A0099
:1007C00080917A00826080937A0080917A008160C3
:1007D00080937A0080917A00806880937A001092EA
:1007E000C100E0916501F091660182E08083E091B3
:1007F0006101F09162011082E0916301F091640166
:100800008FEC808310926D01E0916901F0916A0193
:1008100086E08083E0916701F091680180818061CA
:100820008083E0916701F091680180818860808316
:10083000E0916701F0916801808180688083E09198
:100840006701F091680180818F7D8083E4EBF0E0A7
:100850002491E0EAF0E08491882399F090E0880FF9
:10086000991FFC01EA57FF4FA591B491FC01E45890
:10087000FF4F859194918FB7F894EC91E22BEC9314
:100880008FBFE5EBF0E02491E1EAF0E0849188236A
:10089000C1F090E0880F991FFC01EA57FF4FA59126
:1008A000B491FC01E458FF4FC591D4913FB7F8943F
:1008B0009C91822F809598239C939881892388838B
:1008C0003FBF43E2242E312C5AE3452E512C612C9C
:1008D000712CC0E0D0E060E086E00E94990183E0E6
:1008E00090E00197F1F761E086E00E949901C10173
:1008F0000197F1F760E086E00E949901E5EBF0E0F6
:100900006491E1EAF0E08491E82FF0E0EE0FFF1F40
:10091000E057FF4F8591949100E412E42FE030E01E
:10092000462F0E9469036B017C01C114D104E104CC
:10093000F10439F0FFEFCF1ADF0AEF0AFF0A8FE068
:10094000F822C701B60195958795779567950E941E
:1009500016062DEC3CEC48EE51E40E946C050E941A
:10096000DE054B015C0182E191E00E943F0286E1DD
:1009700091E00E943F02C501B4010E944C0286E151
:1009800091E00E943F02C701B60124E930E040E057
:1009900050E00E94C406CA01B9010E944C0289E1DC
:1009A00091E00E943F02C701B601A30192010E949B
:1009B000C406CA01B9010E944C028EE191E00E9476
:1009C0003F0286E191E00E943F02E0E78E1691042B
:1009D000A104B10494F460E08AE00E94990160E00F
:1009E0008BE00E94990161E08CE00E9499010E94D5
:1009F0000A0281E291E00E943F02D501C4018057C2
:100A00009109A109B1098D3A9105A105B105F8F443
:100A100060E08AE00E94990161E08BE00E94990108
:100A200060E08CE00E9499010E940A028EE291E04F
:100A30000E943F020E940A02209709F44CCF0E94B4
:100A4000F600882309F447CF0E94000044CFFEE15E
:100A50008F16F1E09F06A104B10464F361E08AE01F
:100A60000E94990160E08BE00E94990160E08CE0B7
:100A70000E9499010E940A028FE391E0D9CFE5E537
:100A8000F1E01382128288EE93E0A0E0B0E084836C
:100A90009583A683B78384E091E09183808385EC7E
:100AA00090E09587848784EC90E09787868780EC38
:100AB00090E0918B808B81EC90E0938B828B82EC29
:100AC00090E0958B848B86EC90E0978B868B118ED3
:100AD000128E138E148E08950E9480050C94680661
:100AE0000E94610658F00E945A0640F029F45F3FC8
:100AF00029F00C94510651110C949C060C94570645
:100B00000E94790668F39923B1F3552391F3951B5D
:100B1000550BBB27AA2762177307840738F09F5F1E
:100B20005F4F220F331F441FAA1FA9F335D00E2E8B
:100B30003AF0E0E832D091505040E695001CCAF7F8
:100B40002BD0FE2F29D0660F771F881FBB1F2617BB
:100B500037074807AB07B0E809F0BB0B802DBF0192
:100B6000FF2793585F4F3AF09E3F510578F00C9461
:100B700051060C949C065F3FE4F3983ED4F38695AF
:100B800077956795B795F7959F5FC9F7880F911D82
:100B90009695879597F90895E1E0660F771F881F6E
:100BA000BB1F621773078407BA0720F0621B730B21
:100BB000840BBA0BEE1F88F7E09508950E94E505B7
:100BC0006894B1110C949C0608950E94810688F0E7
:100BD0009F5798F0B92F9927B751B0F0E1F0660F01
:100BE000771F881F991F1AF0BA95C9F714C0B13042
:100BF00091F00E949B06B1E008950C949B06672F2C
:100C0000782F8827B85F39F0B93FCCF38695779570
:100C10006795B395D9F73EF4909580957095619559
:100C20007F4F8F4F9F4F0895E89409C097FB3EF484
:100C300090958095709561957F4F8F4F9F4F992329
:100C4000A9F0F92F96E9BB279395F69587957795A7
:100C50006795B795F111F8CFFAF4BB0F11F460FF67
:100C60001BC06F5F7F4F8F4F9F4F16C0882311F0BF
:100C700096E911C0772321F09EE8872F762F05C0D3
:100C8000662371F096E8862F70E060E02AF09A956E
:100C9000660F771F881FDAF7880F9695879597F963
:100CA000089597F99F6780E870E060E008959FEFEE
:100CB00080EC089500240A941616170618060906F3
:100CC000089500240A9412161306140605060895C2
:100CD000092E0394000C11F4882352F0BB0F40F44A
:100CE000BF2B11F460FF04C06F5F7F4F8F4F9F4F8A
:100CF000089557FD9058440F551F59F05F3F71F00C
:100D00004795880F97FB991F61F09F3F79F0879572
:100D10000895121613061406551FF2CF4695F1DFFB
:100D200008C0161617061806991FF1CF869571058B
:100D3000610508940895E894BB2766277727CB01BF
:100D400097F90895A1E21A2EAA1BBB1BFD010DC045
:100D5000AA1FBB1FEE1FFF1FA217B307E407F5076B
:100D600020F0A21BB30BE40BF50B661F771F881F47
:100D7000991F1A9469F760957095809590959B01DD
:100D8000AC01BD01CF010895052E97FB1EF4009420
:100D90000E94DB0657FD07D00E94A20607FC03D085
:100DA0004EF40C94DB0650954095309521953F4FBD
:100DB0004F4F5F4F089590958095709561957F4F47
:100DC0008F4F9F4F0895EE0FFF1F0590F491E02D78
:060DD0000994F894FFCF26
:100DD600000000002C018C00B9007901EA00C8006F
:100DE600DC00636D3A000D0A00696E2C2000636D0D
:100DF6000053414645204C4556454C3A20004D4F40
:100E0600444552415445204C4556454C3A200052E3
:0C0E160049534B204C4556454C3A2000F7
:00000001FF
